{
  "contractName": "Salaries",
  "abi": [
    {
      "constant": true,
      "inputs": [
        {
          "name": "",
          "type": "address"
        }
      ],
      "name": "salaries",
      "outputs": [
        {
          "name": "state",
          "type": "uint8"
        },
        {
          "name": "business",
          "type": "address"
        },
        {
          "name": "employee",
          "type": "address"
        },
        {
          "name": "balance",
          "type": "uint256"
        },
        {
          "components": [
            {
              "name": "start",
              "type": "uint256"
            },
            {
              "name": "stop",
              "type": "uint256"
            }
          ],
          "name": "timeframe",
          "type": "tuple"
        },
        {
          "components": [
            {
              "name": "price",
              "type": "uint256"
            },
            {
              "name": "interval",
              "type": "uint256"
            }
          ],
          "name": "rate",
          "type": "tuple"
        }
      ],
      "payable": false,
      "stateMutability": "view",
      "type": "function"
    },
    {
      "constant": false,
      "inputs": [],
      "name": "renounceOwnership",
      "outputs": [],
      "payable": false,
      "stateMutability": "nonpayable",
      "type": "function"
    },
    {
      "constant": true,
      "inputs": [],
      "name": "owner",
      "outputs": [
        {
          "name": "",
          "type": "address"
        }
      ],
      "payable": false,
      "stateMutability": "view",
      "type": "function"
    },
    {
      "constant": true,
      "inputs": [],
      "name": "isOwner",
      "outputs": [
        {
          "name": "",
          "type": "bool"
        }
      ],
      "payable": false,
      "stateMutability": "view",
      "type": "function"
    },
    {
      "constant": true,
      "inputs": [],
      "name": "checkpointBlock",
      "outputs": [
        {
          "name": "",
          "type": "uint256"
        }
      ],
      "payable": false,
      "stateMutability": "view",
      "type": "function"
    },
    {
      "constant": true,
      "inputs": [
        {
          "name": "",
          "type": "address"
        }
      ],
      "name": "employees",
      "outputs": [
        {
          "name": "name",
          "type": "string"
        },
        {
          "name": "role",
          "type": "string"
        }
      ],
      "payable": false,
      "stateMutability": "view",
      "type": "function"
    },
    {
      "constant": false,
      "inputs": [
        {
          "name": "newOwner",
          "type": "address"
        }
      ],
      "name": "transferOwnership",
      "outputs": [],
      "payable": false,
      "stateMutability": "nonpayable",
      "type": "function"
    },
    {
      "inputs": [],
      "payable": false,
      "stateMutability": "nonpayable",
      "type": "constructor"
    },
    {
      "anonymous": false,
      "inputs": [
        {
          "indexed": false,
          "name": "employee",
          "type": "address"
        },
        {
          "indexed": false,
          "name": "name",
          "type": "string"
        },
        {
          "indexed": false,
          "name": "role",
          "type": "string"
        }
      ],
      "name": "EmployeeAdded",
      "type": "event"
    },
    {
      "anonymous": false,
      "inputs": [
        {
          "indexed": false,
          "name": "employee",
          "type": "address"
        },
        {
          "indexed": false,
          "name": "name",
          "type": "string"
        },
        {
          "indexed": false,
          "name": "role",
          "type": "string"
        }
      ],
      "name": "EmployeeRemoved",
      "type": "event"
    },
    {
      "anonymous": false,
      "inputs": [
        {
          "indexed": false,
          "name": "business",
          "type": "address"
        },
        {
          "indexed": false,
          "name": "employee",
          "type": "address"
        },
        {
          "indexed": false,
          "name": "deposit",
          "type": "uint256"
        }
      ],
      "name": "SalaryStarted",
      "type": "event"
    },
    {
      "anonymous": false,
      "inputs": [
        {
          "indexed": false,
          "name": "business",
          "type": "address"
        },
        {
          "indexed": false,
          "name": "employee",
          "type": "address"
        },
        {
          "indexed": false,
          "name": "amount",
          "type": "uint256"
        }
      ],
      "name": "SalaryCheckpointed",
      "type": "event"
    },
    {
      "anonymous": false,
      "inputs": [
        {
          "indexed": false,
          "name": "business",
          "type": "address"
        },
        {
          "indexed": false,
          "name": "employee",
          "type": "address"
        },
        {
          "indexed": false,
          "name": "businessFunds",
          "type": "uint256"
        },
        {
          "indexed": false,
          "name": "employeeFunds",
          "type": "uint256"
        }
      ],
      "name": "SalaryClosed",
      "type": "event"
    },
    {
      "anonymous": false,
      "inputs": [
        {
          "indexed": true,
          "name": "previousOwner",
          "type": "address"
        },
        {
          "indexed": true,
          "name": "newOwner",
          "type": "address"
        }
      ],
      "name": "OwnershipTransferred",
      "type": "event"
    },
    {
      "constant": true,
      "inputs": [
        {
          "name": "employee",
          "type": "address"
        }
      ],
      "name": "balanceOf",
      "outputs": [
        {
          "name": "balance",
          "type": "uint256"
        }
      ],
      "payable": false,
      "stateMutability": "view",
      "type": "function"
    },
    {
      "constant": false,
      "inputs": [
        {
          "name": "_address",
          "type": "address"
        },
        {
          "name": "name",
          "type": "string"
        },
        {
          "name": "role",
          "type": "string"
        }
      ],
      "name": "addEmployee",
      "outputs": [],
      "payable": false,
      "stateMutability": "nonpayable",
      "type": "function"
    },
    {
      "constant": false,
      "inputs": [
        {
          "name": "_address",
          "type": "address"
        }
      ],
      "name": "removeEmployee",
      "outputs": [],
      "payable": false,
      "stateMutability": "nonpayable",
      "type": "function"
    },
    {
      "constant": true,
      "inputs": [
        {
          "name": "employee",
          "type": "address"
        }
      ],
      "name": "stateOf",
      "outputs": [
        {
          "name": "state",
          "type": "uint8"
        }
      ],
      "payable": false,
      "stateMutability": "view",
      "type": "function"
    },
    {
      "constant": false,
      "inputs": [
        {
          "name": "employee",
          "type": "address"
        },
        {
          "name": "startBlock",
          "type": "uint256"
        },
        {
          "name": "closeBlock",
          "type": "uint256"
        },
        {
          "name": "price",
          "type": "uint256"
        },
        {
          "name": "interval",
          "type": "uint256"
        }
      ],
      "name": "startSalary",
      "outputs": [],
      "payable": true,
      "stateMutability": "payable",
      "type": "function"
    },
    {
      "constant": false,
      "inputs": [
        {
          "name": "employee",
          "type": "address"
        }
      ],
      "name": "checkpoint",
      "outputs": [],
      "payable": false,
      "stateMutability": "nonpayable",
      "type": "function"
    },
    {
      "constant": false,
      "inputs": [
        {
          "name": "employee",
          "type": "address"
        }
      ],
      "name": "closeSalary",
      "outputs": [],
      "payable": false,
      "stateMutability": "nonpayable",
      "type": "function"
    }
  ],
  "bytecode": "0x60806040523480156200001157600080fd5b50336000806101000a81548173ffffffffffffffffffffffffffffffffffffffff021916908373ffffffffffffffffffffffffffffffffffffffff1602179055506000809054906101000a900473ffffffffffffffffffffffffffffffffffffffff1673ffffffffffffffffffffffffffffffffffffffff16600073ffffffffffffffffffffffffffffffffffffffff167f8be0079c531659141344cd1fd0a4f28419497f9722a3daafe3b4186f6b6457e060405160405180910390a360408051908101604052806040805190810160405280600c81526020017f416c69636961204472616b65000000000000000000000000000000000000000081525081526020016040805190810160405280600d81526020017f4c65616420456e67696e656572000000000000000000000000000000000000008152508152506001600073e7d6a2a1cbed37ee7446d78fd5e6b38aaae3f3b273ffffffffffffffffffffffffffffffffffffffff1673ffffffffffffffffffffffffffffffffffffffff1681526020019081526020016000206000820151816000019080519060200190620001be929190620001e7565b506020820151816001019080519060200190620001dd929190620001e7565b5090505062000296565b828054600181600116156101000203166002900490600052602060002090601f016020900481019282601f106200022a57805160ff19168380011785556200025b565b828001600101855582156200025b579182015b828111156200025a5782518255916020019190600101906200023d565b5b5090506200026a91906200026e565b5090565b6200029391905b808211156200028f57600081600090555060010162000275565b5090565b90565b61335180620002a66000396000f3006080604052600436106100d0576000357c0100000000000000000000000000000000000000000000000000000000900463ffffffff16806345b4903a146100d5578063518c9f5b1461011257806370a0823114610154578063715018a6146101915780637bfc9d4f146101a85780638da5cb5b146101c45780638f32d59b146101ef5780639b05535f1461021a578063a972985e14610245578063d06789471461026e578063d108177a146102ac578063e160628c146102d5578063e63a2615146102fe578063f2fde38b14610327575b600080fd5b3480156100e157600080fd5b506100fc60048036036100f791908101906127a7565b610350565b6040516101099190612f6c565b60405180910390f35b34801561011e57600080fd5b50610139600480360361013491908101906127a7565b610456565b60405161014b96959493929190612f87565b60405180910390f35b34801561016057600080fd5b5061017b600480360361017691908101906127a7565b61051b565b60405161018891906131a0565b60405180910390f35b34801561019d57600080fd5b506101a66107bc565b005b6101c260048036036101bd919081019061284f565b61088e565b005b3480156101d057600080fd5b506101d9610fb9565b6040516101e69190612deb565b60405180910390f35b3480156101fb57600080fd5b50610204610fe2565b6040516102119190612f51565b60405180910390f35b34801561022657600080fd5b5061022f611039565b60405161023c91906131a0565b60405180910390f35b34801561025157600080fd5b5061026c600480360361026791908101906127a7565b61103f565b005b34801561027a57600080fd5b50610295600480360361029091908101906127a7565b611721565b6040516102a3929190612fe9565b60405180910390f35b3480156102b857600080fd5b506102d360048036036102ce91908101906127a7565b611875565b005b3480156102e157600080fd5b506102fc60048036036102f791908101906127a7565b611ba1565b005b34801561030a57600080fd5b50610325600480360361032091908101906127d0565b6120fd565b005b34801561033357600080fd5b5061034e600480360361034991908101906127a7565b61226d565b005b6000816000600381111561036057fe5b600260008373ffffffffffffffffffffffffffffffffffffffff1673ffffffffffffffffffffffffffffffffffffffff16815260200190815260200160002060000160009054906101000a900460ff1660038111156103bb57fe5b141515156103fe576040517f08c379a00000000000000000000000000000000000000000000000000000000081526004016103f590613120565b60405180910390fd5b600260008473ffffffffffffffffffffffffffffffffffffffff1673ffffffffffffffffffffffffffffffffffffffff16815260200190815260200160002060000160009054906101000a900460ff16915050919050565b60026020528060005260406000206000915090508060000160009054906101000a900460ff16908060000160019054906101000a900473ffffffffffffffffffffffffffffffffffffffff16908060010160009054906101000a900473ffffffffffffffffffffffffffffffffffffffff16908060020154908060030160408051908101604052908160008201548152602001600182015481525050908060050160408051908101604052908160008201548152602001600182015481525050905086565b6000610525612573565b6000836000600381111561053557fe5b600260008373ffffffffffffffffffffffffffffffffffffffff1673ffffffffffffffffffffffffffffffffffffffff16815260200190815260200160002060000160009054906101000a900460ff16600381111561059057fe5b141515156105d3576040517f08c379a00000000000000000000000000000000000000000000000000000000081526004016105ca90613120565b60405180910390fd5b600260008673ffffffffffffffffffffffffffffffffffffffff1673ffffffffffffffffffffffffffffffffffffffff16815260200190815260200160002060c060405190810160405290816000820160009054906101000a900460ff16600381111561063c57fe5b600381111561064757fe5b81526020016000820160019054906101000a900473ffffffffffffffffffffffffffffffffffffffff1673ffffffffffffffffffffffffffffffffffffffff1673ffffffffffffffffffffffffffffffffffffffff1681526020016001820160009054906101000a900473ffffffffffffffffffffffffffffffffffffffff1673ffffffffffffffffffffffffffffffffffffffff1673ffffffffffffffffffffffffffffffffffffffff1681526020016002820154815260200160038201604080519081016040529081600082015481526020016001820154815250508152602001600582016040805190810160405290816000820154815260200160018201548152505081525050925082608001516000015143101561076c57600093506107b4565b82608001516020015143111561078857826060015193506107b4565b6107918561228c565b91508260a00151600001518360a0015160200151838115156107af57fe5b040293505b505050919050565b6107c4610fe2565b15156107cf57600080fd5b600073ffffffffffffffffffffffffffffffffffffffff166000809054906101000a900473ffffffffffffffffffffffffffffffffffffffff1673ffffffffffffffffffffffffffffffffffffffff167f8be0079c531659141344cd1fd0a4f28419497f9722a3daafe3b4186f6b6457e060405160405180910390a360008060006101000a81548173ffffffffffffffffffffffffffffffffffffffff021916908373ffffffffffffffffffffffffffffffffffffffff160217905550565b600080600061089b610fe2565b15156108a657600080fd5b876000600160008373ffffffffffffffffffffffffffffffffffffffff1673ffffffffffffffffffffffffffffffffffffffff168152602001908152602001600020600001805460018160011615610100020316600290049050111515610942576040517f08c379a0000000000000000000000000000000000000000000000000000000008152600401610939906130c0565b60405180910390fd5b8861094b612573565b600260008373ffffffffffffffffffffffffffffffffffffffff1673ffffffffffffffffffffffffffffffffffffffff16815260200190815260200160002060c060405190810160405290816000820160009054906101000a900460ff1660038111156109b457fe5b60038111156109bf57fe5b81526020016000820160019054906101000a900473ffffffffffffffffffffffffffffffffffffffff1673ffffffffffffffffffffffffffffffffffffffff1673ffffffffffffffffffffffffffffffffffffffff1681526020016001820160009054906101000a900473ffffffffffffffffffffffffffffffffffffffff1673ffffffffffffffffffffffffffffffffffffffff1673ffffffffffffffffffffffffffffffffffffffff168152602001600282015481526020016003820160408051908101604052908160008201548152602001600182015481525050815260200160058201604080519081016040529081600082015481526020016001820154815250508152505090508060800151600001514310158015610aeb57508060800151602001514311155b610af6576002610af9565b60015b600260008473ffffffffffffffffffffffffffffffffffffffff1673ffffffffffffffffffffffffffffffffffffffff16815260200190815260200160002060000160006101000a81548160ff02191690836003811115610b5657fe5b021790555060026003811115610b6857fe5b600260008473ffffffffffffffffffffffffffffffffffffffff1673ffffffffffffffffffffffffffffffffffffffff16815260200190815260200160002060000160009054906101000a900460ff166003811115610bc357fe5b141515610c05576040517f08c379a0000000000000000000000000000000000000000000000000000000008152600401610bfc90613140565b60405180910390fd5b438a10151515610c4a576040517f08c379a0000000000000000000000000000000000000000000000000000000008152600401610c4190613040565b60405180910390fd5b8a73ffffffffffffffffffffffffffffffffffffffff163373ffffffffffffffffffffffffffffffffffffffff1614151515610cbb576040517f08c379a0000000000000000000000000000000000000000000000000000000008152600401610cb290613180565b60405180910390fd5b898903955060018610151515610d06576040517f08c379a0000000000000000000000000000000000000000000000000000000008152600401610cfd906130e0565b60405180910390fd5b868610151515610d4b576040517f08c379a0000000000000000000000000000000000000000000000000000000008152600401610d42906130a0565b60405180910390fd5b878787811515610d5757fe5b040294503485141515610d9f576040517f08c379a0000000000000000000000000000000000000000000000000000000008152600401610d9690613020565b60405180910390fd5b33935060c06040519081016040528060016003811115610dbb57fe5b81526020018573ffffffffffffffffffffffffffffffffffffffff1681526020018c73ffffffffffffffffffffffffffffffffffffffff16815260200134815260200160408051908101604052808d81526020018c815250815260200160408051908101604052808b81526020018a815250815250600260008d73ffffffffffffffffffffffffffffffffffffffff1673ffffffffffffffffffffffffffffffffffffffff16815260200190815260200160002060008201518160000160006101000a81548160ff02191690836003811115610e9357fe5b021790555060208201518160000160016101000a81548173ffffffffffffffffffffffffffffffffffffffff021916908373ffffffffffffffffffffffffffffffffffffffff16021790555060408201518160010160006101000a81548173ffffffffffffffffffffffffffffffffffffffff021916908373ffffffffffffffffffffffffffffffffffffffff160217905550606082015181600201556080820151816003016000820151816000015560208201518160010155505060a082015181600501600082015181600001556020820151816001015550509050507f32044ba021c684351aea2f11436cabeb97985ae341c1215758b4c711c14e8187848c34604051610fa493929190612e4b565b60405180910390a15050505050505050505050565b60008060009054906101000a900473ffffffffffffffffffffffffffffffffffffffff16905090565b60008060009054906101000a900473ffffffffffffffffffffffffffffffffffffffff1673ffffffffffffffffffffffffffffffffffffffff163373ffffffffffffffffffffffffffffffffffffffff1614905090565b60035481565b611047612573565b6000823373ffffffffffffffffffffffffffffffffffffffff16600260008373ffffffffffffffffffffffffffffffffffffffff1673ffffffffffffffffffffffffffffffffffffffff16815260200190815260200160002060010160009054906101000a900473ffffffffffffffffffffffffffffffffffffffff1673ffffffffffffffffffffffffffffffffffffffff1614151561111c576040517f08c379a000000000000000000000000000000000000000000000000000000000815260040161111390613080565b60405180910390fd5b836000600381111561112a57fe5b600260008373ffffffffffffffffffffffffffffffffffffffff1673ffffffffffffffffffffffffffffffffffffffff16815260200190815260200160002060000160009054906101000a900460ff16600381111561118557fe5b141515156111c8576040517f08c379a00000000000000000000000000000000000000000000000000000000081526004016111bf90613120565b60405180910390fd5b846111d1612573565b600260008373ffffffffffffffffffffffffffffffffffffffff1673ffffffffffffffffffffffffffffffffffffffff16815260200190815260200160002060c060405190810160405290816000820160009054906101000a900460ff16600381111561123a57fe5b600381111561124557fe5b81526020016000820160019054906101000a900473ffffffffffffffffffffffffffffffffffffffff1673ffffffffffffffffffffffffffffffffffffffff1673ffffffffffffffffffffffffffffffffffffffff1681526020016001820160009054906101000a900473ffffffffffffffffffffffffffffffffffffffff1673ffffffffffffffffffffffffffffffffffffffff1673ffffffffffffffffffffffffffffffffffffffff16815260200160028201548152602001600382016040805190810160405290816000820154815260200160018201548152505081526020016005820160408051908101604052908160008201548152602001600182015481525050815250509050806080015160000151431015801561137157508060800151602001514311155b61137c57600261137f565b60015b600260008473ffffffffffffffffffffffffffffffffffffffff1673ffffffffffffffffffffffffffffffffffffffff16815260200190815260200160002060000160006101000a81548160ff021916908360038111156113dc57fe5b0217905550600160038111156113ee57fe5b600260008473ffffffffffffffffffffffffffffffffffffffff1673ffffffffffffffffffffffffffffffffffffffff16815260200190815260200160002060000160009054906101000a900460ff16600381111561144957fe5b14151561148b576040517f08c379a000000000000000000000000000000000000000000000000000000000815260040161148290613100565b60405180910390fd5b600260008873ffffffffffffffffffffffffffffffffffffffff1673ffffffffffffffffffffffffffffffffffffffff16815260200190815260200160002060c060405190810160405290816000820160009054906101000a900460ff1660038111156114f457fe5b60038111156114ff57fe5b81526020016000820160019054906101000a900473ffffffffffffffffffffffffffffffffffffffff1673ffffffffffffffffffffffffffffffffffffffff1673ffffffffffffffffffffffffffffffffffffffff1681526020016001820160009054906101000a900473ffffffffffffffffffffffffffffffffffffffff1673ffffffffffffffffffffffffffffffffffffffff1673ffffffffffffffffffffffffffffffffffffffff168152602001600282015481526020016003820160408051908101604052908160008201548152602001600182015481525050815260200160058201604080519081016040529081600082015481526020016001820154815250508152505095508560a00151600001518660a00151602001518760800151600001516003540381151561163357fe5b040294503373ffffffffffffffffffffffffffffffffffffffff166108fc869081150290604051600060405180830381858888f1935050505015801561167d573d6000803e3d6000fd5b5084600260008973ffffffffffffffffffffffffffffffffffffffff1673ffffffffffffffffffffffffffffffffffffffff16815260200190815260200160002060020160008282540392505081905550436003819055507f9cfd3dd9b729c3dc81e948e355cc830139a8ad82d1bcc265a335d7a621629eda866020015187604001518760405161171093929190612e4b565b60405180910390a150505050505050565b6001602052806000526040600020600091509050806000018054600181600116156101000203166002900480601f0160208091040260200160405190810160405280929190818152602001828054600181600116156101000203166002900480156117cd5780601f106117a2576101008083540402835291602001916117cd565b820191906000526020600020905b8154815290600101906020018083116117b057829003601f168201915b505050505090806001018054600181600116156101000203166002900480601f01602080910402602001604051908101604052809291908181526020018280546001816001161561010002031660029004801561186b5780601f106118405761010080835404028352916020019161186b565b820191906000526020600020905b81548152906001019060200180831161184e57829003601f168201915b5050505050905082565b61187d6125ee565b611885610fe2565b151561189057600080fd5b816000600160008373ffffffffffffffffffffffffffffffffffffffff1673ffffffffffffffffffffffffffffffffffffffff16815260200190815260200160002060000180546001816001161561010002031660029004905011151561192c576040517f08c379a0000000000000000000000000000000000000000000000000000000008152600401611923906130c0565b60405180910390fd5b6040805190810160405280600160008673ffffffffffffffffffffffffffffffffffffffff1673ffffffffffffffffffffffffffffffffffffffff1681526020019081526020016000206000018054600181600116156101000203166002900480601f016020809104026020016040519081016040528092919081815260200182805460018160011615610100020316600290048015611a0d5780601f106119e257610100808354040283529160200191611a0d565b820191906000526020600020905b8154815290600101906020018083116119f057829003601f168201915b50505050508152602001600160008673ffffffffffffffffffffffffffffffffffffffff1673ffffffffffffffffffffffffffffffffffffffff1681526020019081526020016000206001018054600181600116156101000203166002900480601f016020809104026020016040519081016040528092919081815260200182805460018160011615610100020316600290048015611aed5780601f10611ac257610100808354040283529160200191611aed565b820191906000526020600020905b815481529060010190602001808311611ad057829003601f168201915b50505050508152509150600160008473ffffffffffffffffffffffffffffffffffffffff1673ffffffffffffffffffffffffffffffffffffffff16815260200190815260200160002060008082016000611b479190612608565b600182016000611b579190612608565b50507ff278b43496680e5f9600b68e4cbbe74440859e272ed66a7e00c06e0630a4b3d88383600001518460200151604051611b9493929190612f0c565b60405180910390a1505050565b611ba9612573565b6000808360006003811115611bba57fe5b600260008373ffffffffffffffffffffffffffffffffffffffff1673ffffffffffffffffffffffffffffffffffffffff16815260200190815260200160002060000160009054906101000a900460ff166003811115611c1557fe5b14151515611c58576040517f08c379a0000000000000000000000000000000000000000000000000000000008152600401611c4f90613120565b60405180910390fd5b600260008673ffffffffffffffffffffffffffffffffffffffff1673ffffffffffffffffffffffffffffffffffffffff16815260200190815260200160002060c060405190810160405290816000820160009054906101000a900460ff166003811115611cc157fe5b6003811115611ccc57fe5b81526020016000820160019054906101000a900473ffffffffffffffffffffffffffffffffffffffff1673ffffffffffffffffffffffffffffffffffffffff1673ffffffffffffffffffffffffffffffffffffffff1681526020016001820160009054906101000a900473ffffffffffffffffffffffffffffffffffffffff1673ffffffffffffffffffffffffffffffffffffffff1673ffffffffffffffffffffffffffffffffffffffff1681526020016002820154815260200160038201604080519081016040529081600082015481526020016001820154815250508152602001600582016040805190810160405290816000820154815260200160018201548152505081525050935083608001516000015143111515611f0a57600260008673ffffffffffffffffffffffffffffffffffffffff1673ffffffffffffffffffffffffffffffffffffffff168152602001908152602001600020600080820160006101000a81549060ff02191690556000820160016101000a81549073ffffffffffffffffffffffffffffffffffffffff02191690556001820160006101000a81549073ffffffffffffffffffffffffffffffffffffffff021916905560028201600090556003820160008082016000905560018201600090555050600582016000808201600090556001820160009055505050507fcda4f8ce3d6c777940fd8092e9ce61d6d01f9f09c1f5fc06732391387e008d2084602001518560400151600080604051611f019493929190612e06565b60405180910390a15b611f138561228c565b92508360a00151600001518460a001516020015184811515611f3157fe5b04029150836040015173ffffffffffffffffffffffffffffffffffffffff166108fc839081150290604051600060405180830381858888f19350505050158015611f7f573d6000803e3d6000fd5b50836020015173ffffffffffffffffffffffffffffffffffffffff166108fc838660600151039081150290604051600060405180830381858888f19350505050158015611fd0573d6000803e3d6000fd5b50600260008673ffffffffffffffffffffffffffffffffffffffff1673ffffffffffffffffffffffffffffffffffffffff168152602001908152602001600020600080820160006101000a81549060ff02191690556000820160016101000a81549073ffffffffffffffffffffffffffffffffffffffff02191690556001820160006101000a81549073ffffffffffffffffffffffffffffffffffffffff021916905560028201600090556003820160008082016000905560018201600090555050600582016000808201600090556001820160009055505050507fcda4f8ce3d6c777940fd8092e9ce61d6d01f9f09c1f5fc06732391387e008d208460200151856040015184858860600151036040516120ee9493929190612e82565b60405180910390a15050505050565b612105610fe2565b151561211057600080fd5b60008251111515612156576040517f08c379a000000000000000000000000000000000000000000000000000000000815260040161214d90613060565b60405180910390fd5b6000815111151561219c576040517f08c379a000000000000000000000000000000000000000000000000000000000815260040161219390613160565b60405180910390fd5b604080519081016040528083815260200182815250600160008573ffffffffffffffffffffffffffffffffffffffff1673ffffffffffffffffffffffffffffffffffffffff168152602001908152602001600020600082015181600001908051906020019061220c929190612650565b506020820151816001019080519060200190612229929190612650565b509050507fe90b033cd3a59f7cfff7992456f26ba604d1072eae8fce08a7087de235d6151683838360405161226093929190612ec7565b60405180910390a1505050565b612275610fe2565b151561228057600080fd5b61228981612479565b50565b6000612296612573565b6000806000600260008773ffffffffffffffffffffffffffffffffffffffff1673ffffffffffffffffffffffffffffffffffffffff16815260200190815260200160002060c060405190810160405290816000820160009054906101000a900460ff16600381111561230457fe5b600381111561230f57fe5b81526020016000820160019054906101000a900473ffffffffffffffffffffffffffffffffffffffff1673ffffffffffffffffffffffffffffffffffffffff1673ffffffffffffffffffffffffffffffffffffffff1681526020016001820160009054906101000a900473ffffffffffffffffffffffffffffffffffffffff1673ffffffffffffffffffffffffffffffffffffffff1673ffffffffffffffffffffffffffffffffffffffff168152602001600282015481526020016003820160408051908101604052908160008201548152602001600182015481525050815260200160058201604080519081016040529081600082015481526020016001820154815250508152505093508360800151600001519250824310156124375760009450612470565b600060035411156124485760035492505b4391508360800151602001518211156124675783608001516020015191505b82820390508094505b50505050919050565b600073ffffffffffffffffffffffffffffffffffffffff168173ffffffffffffffffffffffffffffffffffffffff16141515156124b557600080fd5b8073ffffffffffffffffffffffffffffffffffffffff166000809054906101000a900473ffffffffffffffffffffffffffffffffffffffff1673ffffffffffffffffffffffffffffffffffffffff167f8be0079c531659141344cd1fd0a4f28419497f9722a3daafe3b4186f6b6457e060405160405180910390a3806000806101000a81548173ffffffffffffffffffffffffffffffffffffffff021916908373ffffffffffffffffffffffffffffffffffffffff16021790555050565b610100604051908101604052806000600381111561258d57fe5b8152602001600073ffffffffffffffffffffffffffffffffffffffff168152602001600073ffffffffffffffffffffffffffffffffffffffff168152602001600081526020016125db6126d0565b81526020016125e86126ea565b81525090565b604080519081016040528060608152602001606081525090565b50805460018160011615610100020316600290046000825580601f1061262e575061264d565b601f01602090049060005260206000209081019061264c9190612704565b5b50565b828054600181600116156101000203166002900490600052602060002090601f016020900481019282601f1061269157805160ff19168380011785556126bf565b828001600101855582156126bf579182015b828111156126be5782518255916020019190600101906126a3565b5b5090506126cc9190612704565b5090565b604080519081016040528060008152602001600081525090565b604080519081016040528060008152602001600081525090565b61272691905b8082111561272257600081600090555060010161270a565b5090565b90565b60006127358235613276565b905092915050565b600082601f830112151561275057600080fd5b813561276361275e826131e8565b6131bb565b9150808252602083016020830185838301111561277f57600080fd5b61278a8382846132c4565b50505092915050565b600061279f8235613296565b905092915050565b6000602082840312156127b957600080fd5b60006127c784828501612729565b91505092915050565b6000806000606084860312156127e557600080fd5b60006127f386828701612729565b935050602084013567ffffffffffffffff81111561281057600080fd5b61281c8682870161273d565b925050604084013567ffffffffffffffff81111561283957600080fd5b6128458682870161273d565b9150509250925092565b600080600080600060a0868803121561286757600080fd5b600061287588828901612729565b955050602061288688828901612793565b945050604061289788828901612793565b93505060606128a888828901612793565b92505060806128b988828901612793565b9150509295509295909350565b6128cf8161322a565b82525050565b6128de8161324a565b82525050565b6128ed816132a0565b82525050565b6128fc816132b2565b82525050565b600061290d8261321f565b8084526129218160208601602086016132d3565b61292a81613306565b602085010191505092915050565b600061294382613214565b8084526129578160208601602086016132d3565b61296081613306565b602085010191505092915050565b6000603082527f46756e6473206465706f73697465642062792074686520627573696e6573732060208301527f6e65656420746f206265206578616374000000000000000000000000000000006040830152606082019050919050565b6000604382527f546865207374617274696e6720626c6f636b206e6565647320746f206265206860208301527f6967686572207468616e207468652063757272656e7420626c6f636b206e756d60408301527f62657200000000000000000000000000000000000000000000000000000000006060830152608082019050919050565b6000601582527f6e616d65206d7573742062652070726f766964656400000000000000000000006020830152604082019050919050565b6000602882527f4f6e6c792074686520656d706c6f7965652063616e2063616c6c20746869732060208301527f66756e6374696f6e0000000000000000000000000000000000000000000000006040830152606082019050919050565b6000604682527f54686520746f74616c2073616c617279206475726174696f6e206e656564732060208301527f746f20626520686967686572207468616e20746865207061796d656e7420696e60408301527f74657276616c00000000000000000000000000000000000000000000000000006060830152608082019050919050565b6000602682527f456d706c6f79656520646f6573206e6f7420657869737420696e20746865207360208301527f746f7261676500000000000000000000000000000000000000000000000000006040830152606082019050919050565b6000603c82527f54686520636c6f73696e6720626c6f636b206e6565647320746f20626520686960208301527f67686572207468616e20746865207374617274696e6720626c6f636b000000006040830152606082019050919050565b6000601882527f53616c617279206973206e6f74206265696e67207061696400000000000000006020830152604082019050919050565b6000602b82527f53616c617279206f626a65637420646f6573206e6f7420657869737420696e2060208301527f7468652073746f726167650000000000000000000000000000000000000000006040830152606082019050919050565b6000601c82527f53616c61727920697320616c7265616479206265696e672070616964000000006020830152604082019050919050565b6000601582527f726f6c65206d7573742062652070726f766964656400000000000000000000006020830152604082019050919050565b6000603882527f54686520627573696e65737320616e642074686520656d706c6f79656520636160208301527f6e6e6f74206265207468652073616d65206163636f756e7400000000000000006040830152606082019050919050565b604082016000820151612d946000850182612ddc565b506020820151612da76020850182612ddc565b50505050565b604082016000820151612dc36000850182612ddc565b506020820151612dd66020850182612ddc565b50505050565b612de58161326c565b82525050565b6000602082019050612e0060008301846128c6565b92915050565b6000608082019050612e1b60008301876128c6565b612e2860208301866128c6565b612e3560408301856128f3565b612e4260608301846128f3565b95945050505050565b6000606082019050612e6060008301866128c6565b612e6d60208301856128c6565b612e7a6040830184612ddc565b949350505050565b6000608082019050612e9760008301876128c6565b612ea460208301866128c6565b612eb16040830185612ddc565b612ebe6060830184612ddc565b95945050505050565b6000606082019050612edc60008301866128c6565b8181036020830152612eee8185612902565b90508181036040830152612f028184612902565b9050949350505050565b6000606082019050612f2160008301866128c6565b8181036020830152612f338185612938565b90508181036040830152612f478184612938565b9050949350505050565b6000602082019050612f6660008301846128d5565b92915050565b6000602082019050612f8160008301846128e4565b92915050565b600061010082019050612f9d60008301896128e4565b612faa60208301886128c6565b612fb760408301876128c6565b612fc46060830186612ddc565b612fd16080830185612dad565b612fde60c0830184612d7e565b979650505050505050565b600060408201905081810360008301526130038185612938565b905081810360208301526130178184612938565b90509392505050565b600060208201905081810360008301526130398161296e565b9050919050565b60006020820190508181036000830152613059816129cb565b9050919050565b6000602082019050818103600083015261307981612a4e565b9050919050565b6000602082019050818103600083015261309981612a85565b9050919050565b600060208201905081810360008301526130b981612ae2565b9050919050565b600060208201905081810360008301526130d981612b65565b9050919050565b600060208201905081810360008301526130f981612bc2565b9050919050565b6000602082019050818103600083015261311981612c1f565b9050919050565b6000602082019050818103600083015261313981612c56565b9050919050565b6000602082019050818103600083015261315981612cb3565b9050919050565b6000602082019050818103600083015261317981612cea565b9050919050565b6000602082019050818103600083015261319981612d21565b9050919050565b60006020820190506131b56000830184612ddc565b92915050565b6000604051905081810181811067ffffffffffffffff821117156131de57600080fd5b8060405250919050565b600067ffffffffffffffff8211156131ff57600080fd5b601f19601f8301169050602081019050919050565b600081519050919050565b600081519050919050565b600073ffffffffffffffffffffffffffffffffffffffff82169050919050565b60008115159050919050565b600060048210151561326457fe5b819050919050565b6000819050919050565b600073ffffffffffffffffffffffffffffffffffffffff82169050919050565b6000819050919050565b60006132ab82613256565b9050919050565b60006132bd8261326c565b9050919050565b82818337600083830152505050565b60005b838110156132f15780820151818401526020810190506132d6565b83811115613300576000848401525b50505050565b6000601f19601f83011690509190505600a265627a7a7230582095c04541067272210de8f9a5b44ad9d931a66483549c3c3dab982372d7342e4d6c6578706572696d656e74616cf50037",
  "source": "pragma solidity ^0.4.24;\npragma experimental ABIEncoderV2;\n\nimport \"openzeppelin-solidity/contracts/ownership/Ownable.sol\";\nimport \"openzeppelin-solidity/contracts/math/SafeMath.sol\";\n\ncontract Salaries is Ownable {\n    using SafeMath for uint256;\n\n    /**\n     * Events\n     */\n    event EmployeeAdded(address employee, string name, string role);\n    event EmployeeRemoved(address employee, string name, string role);\n    event SalaryStarted(address business, address employee, uint256 deposit);\n    event SalaryCheckpointed(address business, address employee, uint256 amount);\n    event SalaryClosed(address business, address employee, uint256 businessFunds, uint256 employeeFunds);\n\n    /**\n     * Structs\n     */\n    struct Employee {\n        string name;\n        string role;\n    }\n\n    struct Timeframe {\n        uint256 start;\n        uint256 stop;\n    }\n\n    struct Rate {\n        uint256 price;\n        uint256 interval;\n    }\n\n    struct Salary {\n        SalaryState state;\n        address business;\n        address employee;\n        uint256 balance;\n        Timeframe timeframe;\n        Rate rate;\n    }\n\n    constructor() public {\n        employees[0xe7D6a2a1cbEd37EE7446d78Fd5E6B38AAAe3f3B2] = Employee(\"Alicia Drake\", \"Lead Engineer\");\n    }\n\n    /**\n     * Enums\n     */\n    enum SalaryState { NonExistent, Paying, NonPaying, Finalized }\n\n    /**\n     * Storage\n     */\n    mapping (address => Employee) public employees;\n    mapping (address => Salary) public salaries;\n    uint256 public checkpointBlock;\n\n    /**\n     * Modifiers\n     */\n    modifier isNonNilEmployee(address addr)\n    {\n        require(bytes(employees[addr].name).length > 0, \"Employee does not exist in the storage\");\n        _;\n    }\n\n    modifier isPaying(address employee)\n    {\n        // make sure that the state is indeed `.Paying` when it should be\n        Salary memory salary = salaries[employee];\n        salaries[employee].state = (block.number >= salary.timeframe.start && block.number <= salary.timeframe.stop) ? SalaryState.Paying : SalaryState.NonPaying;\n        require(salaries[employee].state == SalaryState.Paying, \"Salary is not being paid\");\n        _;\n    }\n\n    modifier isNonPaying(address employee)\n    {\n        // make sure that the state is indeed `.NonSalarying` when it should be\n        Salary memory salary = salaries[employee];\n        salaries[employee].state = (block.number >= salary.timeframe.start && block.number <= salary.timeframe.stop) ? SalaryState.Paying : SalaryState.NonPaying;\n        require(salaries[employee].state == SalaryState.NonPaying, \"Salary is already being paid\");\n        _;\n    }\n\n    modifier isNonNilSalary(address employee)\n    {\n        require(salaries[employee].state != SalaryState.NonExistent, \"Salary object does not exist in the storage\");\n        _;\n    }\n\n    modifier onlyEmployee(address _address) {\n        require(salaries[_address].employee == msg.sender, \"Only the employee can call this function\");\n        _;\n    }\n\n    /**\n     * Helpers\n     */\n    // blockDelta returns the difference between the current block height\n    // and the latest checkpointed state (by default this is the start time).\n    //\n    // @param employee      The address of the employee receiving the salary\n    function blockDelta(address employee)\n    private\n    view\n    returns (uint256)\n    {\n        Salary memory salary = salaries[employee];\n        uint256 startBlock = salary.timeframe.start;\n        // Called before the streaming period ended\n        if (block.number < startBlock) {\n            return 0;\n        }\n        if (checkpointBlock > 0) {\n            startBlock = checkpointBlock;\n        }\n        // Called after the streaming period ended\n        uint256 latestBlock = block.number;\n        if (latestBlock > salary.timeframe.stop) {\n            latestBlock = salary.timeframe.stop;\n        }\n        uint256 delta = latestBlock - startBlock;\n        return delta;\n    }\n\n    // @param employee        The address of the employee receiving the salary\n    function balanceOf(address employee)\n    isNonNilSalary(employee)\n    public\n    view\n    returns (uint256 balance)\n    {\n        Salary memory salary = salaries[employee];\n        if (block.number < salary.timeframe.start) {\n            return 0;\n        }\n        if (block.number > salary.timeframe.stop) {\n            return salary.balance;\n        }\n        uint256 delta = blockDelta(employee);\n        return (delta / salary.rate.interval) * salary.rate.price;\n    }\n\n    /**\n     * Functions\n     */\n\n    // @param employee      The address of the employee receiving the salary\n    // @param name          The name of the employee\n    // @param role          The role of the employee\n    function addEmployee(address _address, string name, string role)\n    onlyOwner\n    public\n    {\n        require(bytes(name).length > 0, \"name must be provided\");\n        require(bytes(role).length > 0, \"role must be provided\");\n        employees[_address] = Employee(name, role);\n        emit EmployeeAdded(_address, name, role);\n    }\n\n    // @param employee        The address of the employee receiving the salary\n    function removeEmployee(address _address)\n    onlyOwner\n    isNonNilEmployee(_address)\n    public\n    {\n        Employee memory employee = Employee(employees[_address].name, employees[_address].role);\n        delete employees[_address];\n        emit EmployeeRemoved(_address, employee.name, employee.role);\n    }\n\n    // @param employee        The address of the employee receiving the salary\n    function stateOf(address employee)\n    isNonNilSalary(employee)\n    public\n    view\n    returns (SalaryState state)\n    {\n        return salaries[employee].state;\n    }\n\n    // Starts a continuous salary\n    //\n    // @param employee      the account receiving the payments\n    // @param startBlock    start of the salary\n    // @param closeBlock    close of the salary\n    // @param price         how much the payers pays per interval\n    // @param interval      the rate at which $price worth of  is salaryed\n    function startSalary(address employee, uint256 startBlock, uint256 closeBlock, uint256 price, uint256 interval)\n    onlyOwner\n    isNonNilEmployee(employee)\n    isNonPaying(employee)\n    public\n    payable\n    {\n        require(startBlock >= block.number, \"The starting block needs to be higher than the current block number\");\n        require(msg.sender != employee, \"The business and the employee cannot be the same account\");\n\n        uint256 duration = closeBlock - startBlock;\n        require(duration >= 1, \"The closing block needs to be higher than the starting block\");\n        require(duration >= interval, \"The total salary duration needs to be higher than the payment interval\");\n\n        uint256 funds = (duration / interval) * price;\n        require(funds == msg.value, \"Funds deposited by the business need to be exact\");\n\n        address business = msg.sender;\n        salaries[employee] = Salary(\n            SalaryState.Paying,\n            business,\n            employee,\n            msg.value,\n            Timeframe(startBlock, closeBlock),\n            Rate(price, interval)\n        );\n        emit SalaryStarted(business, employee, msg.value);\n    }\n\n    // checkpoint lets the employee move the current blaa the funds into their\n    // actual wallet account\n    //\n    // @param employee        The address of the employee receiving the salary\n    function checkpoint(address employee)\n    onlyEmployee(employee)\n    isNonNilSalary(employee)\n    isPaying(employee)\n    public\n    {\n        Salary memory salary = salaries[employee];\n        uint256 funds = ((checkpointBlock - salary.timeframe.start) / salary.rate.interval) * salary.rate.price;\n        msg.sender.transfer(funds);\n\n        salaries[employee].balance -= funds;\n        checkpointBlock = block.number;\n        emit SalaryCheckpointed(salary.business, salary.employee, funds);\n    }\n\n    // closeSalary stops a continuous salary. Both the business and the employee can do this.\n    // This can be triggered while the salary is being paid, or afterwards, but\n    // never before.\n    //\n    // @param employee        The address of the employee receiving the salary\n    function closeSalary(address employee)\n    isNonNilSalary(employee)\n    public\n    {\n        Salary memory salary = salaries[employee];\n        if (block.number <= salary.timeframe.start) {\n            delete salaries[employee];\n            emit SalaryClosed(salary.business, salary.employee, 0, 0);\n        }\n\n        uint256 delta = blockDelta(employee);\n        uint256 funds = (delta / salary.rate.interval) * salary.rate.price;\n        salary.employee.transfer(funds);\n        salary.business.transfer(salary.balance - funds);\n\n        delete salaries[employee];\n        emit SalaryClosed(salary.business, salary.employee, funds, salary.balance - funds);\n    }\n}",
  "sourcePath": "/Users/paulrberg/Documents/Hackathons/cryptolife/flipper/contracts/Salaries.sol",
  "compiler": {
    "name": "solc",
    "version": "0.4.24+commit.e67f0147.Emscripten.clang"
  },
  "schemaVersion": "2.0.1",
  "updatedAt": "2018-10-28T00:33:35.838Z"
}